{
  "contractName": "Faucet",
  "abi": [
    {
      "inputs": [
        {
          "internalType": "address",
          "name": "",
          "type": "address"
        }
      ],
      "name": "funders",
      "outputs": [
        {
          "internalType": "bool",
          "name": "",
          "type": "bool"
        }
      ],
      "stateMutability": "view",
      "type": "function",
      "constant": true
    },
    {
      "inputs": [
        {
          "internalType": "uint256",
          "name": "",
          "type": "uint256"
        }
      ],
      "name": "lutFunders",
      "outputs": [
        {
          "internalType": "address",
          "name": "",
          "type": "address"
        }
      ],
      "stateMutability": "view",
      "type": "function",
      "constant": true
    },
    {
      "inputs": [],
      "name": "numOfFunders",
      "outputs": [
        {
          "internalType": "uint256",
          "name": "",
          "type": "uint256"
        }
      ],
      "stateMutability": "view",
      "type": "function",
      "constant": true
    },
    {
      "stateMutability": "payable",
      "type": "receive",
      "payable": true
    },
    {
      "inputs": [],
      "name": "addFunds",
      "outputs": [],
      "stateMutability": "payable",
      "type": "function",
      "payable": true
    },
    {
      "inputs": [
        {
          "internalType": "uint256",
          "name": "index",
          "type": "uint256"
        }
      ],
      "name": "getFundersIndex",
      "outputs": [
        {
          "internalType": "address",
          "name": "",
          "type": "address"
        }
      ],
      "stateMutability": "view",
      "type": "function",
      "constant": true
    },
    {
      "inputs": [],
      "name": "getAllFunders",
      "outputs": [
        {
          "internalType": "address[]",
          "name": "",
          "type": "address[]"
        }
      ],
      "stateMutability": "view",
      "type": "function",
      "constant": true
    },
    {
      "inputs": [
        {
          "internalType": "uint256",
          "name": "withdrawAmount",
          "type": "uint256"
        }
      ],
      "name": "withdraw",
      "outputs": [],
      "stateMutability": "nonpayable",
      "type": "function"
    }
  ],
  "bytecode": "0x608060405234801561001057600080fd5b506108eb806100206000396000f3fe6080604052600436106100745760003560e01c80632e1a7d4d1161004e5780632e1a7d4d146101375780636fbbb55d14610160578063a26759cb1461018b578063af7f2c9b146101955761007b565b8063031b3677146100805780631f8947ea146100bd5780632e1472de146100fa5761007b565b3661007b57005b600080fd5b34801561008c57600080fd5b506100a760048036038101906100a29190610568565b6101c0565b6040516100b491906105b0565b60405180910390f35b3480156100c957600080fd5b506100e460048036038101906100df9190610601565b6101e0565b6040516100f1919061063d565b60405180910390f35b34801561010657600080fd5b50610121600480360381019061011c9190610601565b610213565b60405161012e919061063d565b60405180910390f35b34801561014357600080fd5b5061015e60048036038101906101599190610601565b610250565b005b34801561016c57600080fd5b506101756102e7565b6040516101829190610716565b60405180910390f35b6101936103e0565b005b3480156101a157600080fd5b506101aa6104ff565b6040516101b79190610747565b60405180910390f35b60026020528060005260406000206000915054906101000a900460ff1681565b60016020528060005260406000206000915054906101000a900473ffffffffffffffffffffffffffffffffffffffff1681565b60006001600083815260200190815260200160002060009054906101000a900473ffffffffffffffffffffffffffffffffffffffff169050919050565b80670de0b6b3a764000081111561029c576040517f08c379a0000000000000000000000000000000000000000000000000000000008152600401610293906107bf565b60405180910390fd5b3373ffffffffffffffffffffffffffffffffffffffff166108fc839081150290604051600060405180830381858888f193505050501580156102e2573d6000803e3d6000fd5b505050565b60606000805467ffffffffffffffff811115610306576103056107df565b5b6040519080825280602002602001820160405280156103345781602001602082028036833780820191505090505b50905060005b6000548110156103d8576001600082815260200190815260200160002060009054906101000a900473ffffffffffffffffffffffffffffffffffffffff1682828151811061038b5761038a61080e565b5b602002602001019073ffffffffffffffffffffffffffffffffffffffff16908173ffffffffffffffffffffffffffffffffffffffff168152505080806103d09061086c565b91505061033a565b508091505090565b6000339050600260008273ffffffffffffffffffffffffffffffffffffffff1673ffffffffffffffffffffffffffffffffffffffff16815260200190815260200160002060009054906101000a900460ff166104fc57600080600081548092919061044a9061086c565b9190505590506001600260008473ffffffffffffffffffffffffffffffffffffffff1673ffffffffffffffffffffffffffffffffffffffff16815260200190815260200160002060006101000a81548160ff021916908315150217905550816001600083815260200190815260200160002060006101000a81548173ffffffffffffffffffffffffffffffffffffffff021916908373ffffffffffffffffffffffffffffffffffffffff160217905550505b50565b60005481565b600080fd5b600073ffffffffffffffffffffffffffffffffffffffff82169050919050565b60006105358261050a565b9050919050565b6105458161052a565b811461055057600080fd5b50565b6000813590506105628161053c565b92915050565b60006020828403121561057e5761057d610505565b5b600061058c84828501610553565b91505092915050565b60008115159050919050565b6105aa81610595565b82525050565b60006020820190506105c560008301846105a1565b92915050565b6000819050919050565b6105de816105cb565b81146105e957600080fd5b50565b6000813590506105fb816105d5565b92915050565b60006020828403121561061757610616610505565b5b6000610625848285016105ec565b91505092915050565b6106378161052a565b82525050565b6000602082019050610652600083018461062e565b92915050565b600081519050919050565b600082825260208201905092915050565b6000819050602082019050919050565b61068d8161052a565b82525050565b600061069f8383610684565b60208301905092915050565b6000602082019050919050565b60006106c382610658565b6106cd8185610663565b93506106d883610674565b8060005b838110156107095781516106f08882610693565b97506106fb836106ab565b9250506001810190506106dc565b5085935050505092915050565b6000602082019050818103600083015261073081846106b8565b905092915050565b610741816105cb565b82525050565b600060208201905061075c6000830184610738565b92915050565b600082825260208201905092915050565b7f4b686f6e672074686520727574206e6869657520686f6e203145544800000000600082015250565b60006107a9601c83610762565b91506107b482610773565b602082019050919050565b600060208201905081810360008301526107d88161079c565b9050919050565b7f4e487b7100000000000000000000000000000000000000000000000000000000600052604160045260246000fd5b7f4e487b7100000000000000000000000000000000000000000000000000000000600052603260045260246000fd5b7f4e487b7100000000000000000000000000000000000000000000000000000000600052601160045260246000fd5b6000610877826105cb565b91507fffffffffffffffffffffffffffffffffffffffffffffffffffffffffffffffff8214156108aa576108a961083d565b5b60018201905091905056fea2646970667358221220932cdc0ea8bd078a68420a7d9de0a7127c4ff6409502cf000b1fd4ae573f0cf364736f6c634300080b0033",
  "immutableReferences": {},
  "source": "// SPDX-License-Identifier: MIT\r\npragma solidity >=0.4.22 <0.9.0;\r\n\r\ncontract Faucet {\r\n    uint256 public numOfFunders;\r\n    mapping(uint256 => address) public lutFunders;\r\n    mapping(address => bool) public funders;\r\n\r\n    receive() external payable {}\r\n\r\n    // Addfunds, Withdraw, addressIndex, getFunfers\r\n    function addFunds() external payable {\r\n        address funder = msg.sender;\r\n\r\n        if (!funders[funder]) {\r\n            uint256 index = numOfFunders++;\r\n            funders[funder] = true;\r\n            lutFunders[index] = funder;\r\n        }\r\n    }\r\n\r\n    function getFundersIndex(uint256 index) external view returns (address) {\r\n        return lutFunders[index];\r\n    }\r\n\r\n    function getAllFunders() external view returns (address[] memory) {\r\n        address[] memory _funders = new address[](numOfFunders);\r\n\r\n        for (uint256 i = 0; i < numOfFunders; i++) {\r\n            _funders[i] = lutFunders[i];\r\n        }\r\n        return _funders;\r\n    }\r\n\r\n    function withdraw(uint256 withdrawAmount)\r\n        external\r\n        limitWithdraw(withdrawAmount)\r\n    {\r\n        payable(msg.sender).transfer(withdrawAmount);\r\n    }\r\n\r\n    modifier limitWithdraw(uint256 withdrawAmount) {\r\n        require(\r\n            withdrawAmount <= 1 * (10**18),\r\n            \"Khong the rut nhieu hon 1ETH\"\r\n        );\r\n\r\n        _;\r\n    }\r\n}",
  "sourcePath": "C:\\Users\\m\\phuc\\win\\contracts\\Faucet.sol",
  "compiler": {
    "name": "solc",
    "version": "0.8.11+commit.d7f03943.Emscripten.clang"
  },
  "schemaVersion": "3.4.4",
  "updatedAt": "2022-01-21T14:50:55.457Z",
  "networkType": "ethereum",
  "devdoc": {
    "kind": "dev",
    "methods": {},
    "version": 1
  },
  "userdoc": {
    "kind": "user",
    "methods": {},
    "version": 1
  }
}